:04000000E2EF0CF02F
:10100000003738392F3435362A3132332D23303DED
:101010002B002BEC0DF02A0E386E000E396E4B0EA5
:101020003A6E000E3B6E4EEC0AF04C6E270E386E98
:10103000000E396E4A0E3A6E000E3B6E4EEC0AF010
:101040004C6E4B50D8A427EF08F029EF08F02AEF98
:1010500008F01F2A4A50D8A430EF08F032EF08F009
:1010600035EF08F0202A000E216E000E426E3E0E73
:10107000366E030E7EEC0CF04C6E1FC02EF02F6A05
:10108000000E316E0A0E306EC3EC0AF02E50366E32
:10109000020E7EEC0CF04C6E090E416EA70EE82E8F
:1010A000FED7412EFCD700F03D0E366E030E7EECCF
:1010B0000CF04C6E1FC02EF02F6A000E316E0A0E1F
:1010C000306E81EC0BF02E50366E020E7EEC0CF082
:1010D0004C6E090E416EA70EE82EFED7412EFCD7AE
:1010E00000F03B0E366E030E7EEC0CF04C6E20C012
:1010F0002EF02F6A000E316E0A0E306EC3EC0AF02D
:101100002E50366E020E7EEC0CF04C6E090E416EC7
:10111000A70EE82EFED7412EFCD700F0370E366E14
:10112000030E7EEC0CF04C6E20C02EF02F6A000EE9
:10113000316E0A0E306E81EC0BF02E50366E020EC0
:101140007EEC0CF04C6E090E416EA70EE82EFED719
:10115000412EFCD700F02F0E366E030E7EEC0CF005
:101160004C6E21C02EF02F6A000E316E0A0E306ECA
:10117000C3EC0AF02E50366E020E7EEC0CF04C6E74
:10118000090E416EA70EE82EFED7412EFCD700F0C7
:101190001F0E366E030E7EEC0CF04C6E21C02EF04E
:1011A0002F6A000E316E0A0E306E81EC0BF02E505D
:1011B000366E020E7EEC0CF04C6E090E416EA70EE0
:1011C000E82EFED7412EFCD700F0422A310E4264B1
:1011D000ECEF08F0EEEF08F037EF08F0212A3C0EB4
:1011E0002118D8A4F6EF08F0F8EF08F0FBEF08F0AC
:1011F000202A000E216E3C0E2018D8A402EF09F020
:1012000004EF09F007EF09F01F2A000E206E180EF8
:101210001F18D8A40EEF09F010EF09F00BEF08F03B
:10122000000E1F6E0BEF08F000EF00F0010E366E9F
:101230002E502F10D8B41FEF09F021EF09F032EF34
:1012400009F02EC0D9FF2FC0DAFFDF30E832E832D4
:10125000070B306E070E306430EF09F032EF09F003
:1012600095EF09F0000E366EB6EF09F02EC0D9FFEB
:101270002FC0DAFFDF30E832E832070B306E010EA4
:10128000316E302A46EF09F0D8903136302E44EFD7
:1012900009F03150FF0A326E2EC0D9FF2FC0DAFF9D
:1012A000DF50070B336E3350020D150EF324D96E49
:1012B000000EF420DA6EDECF34F0DDCF35F034C02E
:1012C000D9FF35C0DAFF3250DF16B6EF09F02EC075
:1012D000D9FF2FC0DAFFDF30E832E832070B306E7B
:1012E000010E316E302A77EF09F0D8903136302E6A
:1012F00075EF09F02EC0D9FF2FC0DAFFDF50070BC2
:10130000326E3250020D150EF324D96E000EF42009
:10131000DA6EDECF33F0DDCF34F033C0D9FF34C026
:10132000DAFF3150DF12B6EF09F02EC0D9FF2FC01F
:10133000DAFFDFBC9EEF09F0A1EF09F0010EA2EF8A
:1013400009F0000E306E316A3150000AD8B4ABEFAC
:1013500009F0B6EF09F03050000AD8B436EF09F0C2
:10136000010AD8B467EF09F0B6EF09F03650120061
:10137000010E376E2E502F10D8B4C1EF09F0C3EF15
:1013800009F0D4EF09F02EC0D9FF2FC0DAFFDF300B
:10139000E832E832070B316E070E3164D2EF09F004
:1013A000D4EF09F037EF0AF0000E376E4CEF0AF079
:1013B0002EC0D9FF2FC0DAFFDF30E832E832070B4A
:1013C000316E010E326E312AE8EF09F0D8903236D4
:1013D000312EE6EF09F03250FF0A336E2EC0D9FFEE
:1013E0002FC0DAFFDF50070B346E3450020D0B0EA6
:1013F000F324D96E000EF420DA6EDECF35F0DDCFA7
:1014000036F035C0D9FF36C0DAFF3350DF164CEF67
:101410000AF02EC0D9FF2FC0DAFFDF30E832E83201
:10142000070B316E010E326E312A19EF0AF0D89097
:101430003236312E17EF0AF02EC0D9FF2FC0DAFF57
:10144000DF50070B336E3350020D0B0EF324D96EB1
:10145000000EF420DA6EDECF34F0DDCF35F034C08C
:10146000D9FF35C0DAFF3250DF124CEF0AF03050AE
:10147000316E326A3250000AD8B441EF0AF0D4EF2C
:1014800009F03150000AD8B4D8EF09F0010AD8B4F5
:1014900009EF0AF0D4EF09F037501200000E3E6E4B
:1014A00038503910D8B457EF0AF059EF0AF062EF0C
:1014B0000AF03A503B10D8A460EF0AF062EF0AF04D
:1014C00066EF0AF0000E3D6EC1EF0AF038C02EF054
:1014D00039C02FF03E0E306E000E316E25EC0BF051
:1014E00020EE02F03850D9263950DA22DF50D8A445
:1014F0007CEF0AF07EEF0AF09DEF0AF03E04D8A4DC
:1015000084EF0AF086EF0AF08DEF0AF03AC0D9FFB7
:101510003BC0DAFFDF6ABFEF0AF03E50D8A493EF7A
:101520000AF095EF0AF0BFEF0AF03AC0D9FF3BC0CE
:10153000DAFF010EDF6EBFEF0AF020EE02F0385046
:10154000D9263950DA22DE04D8A4A9EF0AF0ABEF8D
:101550000AF0BFEF0AF03E50D8A4B1EF0AF0B3EFA3
:101560000AF0B5EF0AF086EF0AF03E04D8A4BBEF0C
:101570000AF0BDEF0AF0BFEF0AF095EF0AF0010E96
:101580003D6E3D501200000E336E31BECCEF0AF0BE
:10159000CAEF0AF0D2EF0AF0306C311ED8B0312A0F
:1015A000010E336E2FBED9EF0AF0D7EF0AF0DFEF4E
:1015B0000AF02E6C2F1ED8B02F2A010E331A000EFF
:1015C000356E000E346E30503110D8B4EAEF0AF0A8
:1015D000ECEF0AF014EF0BF0010E326EF4EF0AF0AC
:1015E000D89030363136322A31AEF9EF0AF0FBEFBF
:1015F0000AF0F0EF0AF0D8903436353630502E5CD1
:1016000031502F58D8A007EF0BF009EF0BF00EEF79
:101610000BF030502E5E31502F5A3480D89031323A
:101620003032322EFBEF0AF03350D8B41AEF0BF001
:101630001CEF0BF020EF0BF0346C351ED8B0352AC0
:1016400034C02EF035C02FF01200010E376E2E5030
:101650002F10D8B42EEF0BF030EF0BF04AEF0BF059
:1016600030503110D8B437EF0BF039EF0BF04AEFB0
:101670000BF02EC0D9FF2FC0DAFFDF30E832E8329E
:10168000070B326E070E326448EF0BF04AEF0BF097
:101690004EEF0BF0000E376E7FEF0BF02EC0D9FF30
:1016A0002FC0DAFFDF30E832E832070B326E2EC08F
:1016B000D9FF2FC0DAFFDF50070B336E3350020D16
:1016C000010EF324D96E000EF420DA6EDECF34F072
:1016D000DDCF35F034C0D9FF35C0DAFFDF50366ECC
:1016E000322A75EF0BF0D8903632322E73EF0BF0B2
:1016F0003650010B30C0D9FF31C0DAFFDF6E3750F2
:101700001200000E336E2FBE8AEF0BF088EF0BF045
:1017100090EF0BF02E6C2F1ED8B02F2A010E336ED7
:1017200031BE97EF0BF095EF0BF09BEF0BF0306CA9
:10173000311ED8B0312A30503110D8B4A2EF0BF09E
:10174000A4EF0BF0C8EF0BF0010E326EACEF0BF014
:10175000D89030363136322A31AEB1EF0BF0B3EFDC
:101760000BF0A8EF0BF030502E5C31502F58D8A062
:10177000BCEF0BF0BEEF0BF0C2EF0BF030502E5E63
:1017800031502F5AD89031323032322EB3EF0BF025
:101790003350D8B4CEEF0BF0D0EF0BF0D4EF0BF00A
:1017A0002E6C2F1ED8B02F2A2EC02EF02FC02FF057
:1017B0001200010E3F6E3C503D10D8A4E2EF0BF03A
:1017C000E4EF0BF0E8EF0BF0000E3F6E17EF0CF0BC
:1017D00049C040F03CC0D9FF3DC0DAFFDF50070BE5
:1017E0003E6E40503E18F80B3E18406E3CC0D9FF8C
:1017F0003DC0DAFFDF30E832E832070B3E6E3E468E
:101800003E463E4640503E18C70B3E18406E409C38
:101810003CC0D9FF3DC0DAFFDFAC02D0408E01D022
:10182000409E400E386E000E396E19EC0CF03F50A1
:10183000120038503910D8B420EF0CF022EF0CF021
:1018400033EF0CF038C0D9FF39C0DAFFDF30E832AF
:10185000E832070B3A6E070E3A6431EF0CF033EFC3
:101860000CF037EF0CF0000E3B6E4DEF0CF038C073
:101870002EF039C02FF016EC09F03B6E38C02EF078
:1018800039C02FF038C0D9FF39C0DAFF000EDFBEF3
:10189000010E306EB8EC09F03B6E3B501200010EA9
:1018A0003E6E3C503D10D8A458EF0CF05AEF0CF0AF
:1018B0005EEF0CF0000E3E6E7CEF0CF03CC038F09A
:1018C0003DC039F019EC0CF0010E3C24386E000ECE
:1018D0003D20396E19EC0CF0020E3C24386E000EDF
:1018E0003D20396E19EC0CF0030E3C24386E000ECE
:1018F0003D20396E19EC0CF03E5012003A6E010E8C
:10190000396E040E3A6487EF0CF089EF0CF08DEF1E
:101910000CF0000E396E9FEF0CF03A50020D0B0EDA
:10192000F324D96E000EF420DA6EDECF37F0DDCF6F
:1019300038F037C0D9FF38C0DAFF36C0DFFF395082
:101940001200326E010E316E040E3264AAEF0CF0FA
:10195000ACEF0CF0B0EF0CF0000E316EC2EF0CF0FB
:101960003250020D150EF324D96E000EF420DA6EFB
:10197000DECF2FF0DDCF30F02FC0D9FF30C0DAFF3F
:101980002EC0DFFF31501200220E3C6E000E3D6E65
:101990004FEC0CF0C00E2E6E030EA1EC0CF02A0ED4
:1019A000376E000E386EFDEC0CF0270E376E000E11
:1019B000386EFDEC0CF02D0E3C6E000E3D6ED9EC39
:1019C0000BF01200280EF66E1A0EF76E000EF86E6F
:1019D00000EE01F010EE2DF00900F5CFEEFFE5501E
:1019E000E150FAE100EE42F00A0EEE6AE806FDE18F
:1019F000000EF86E000109EF08F0010E396E375045
:101A00003810D8A406EF0DF008EF0DF00CEF0DF034
:101A1000000E396E12EF0DF037C02EF038C02FF0E7
:101A200016EC09F039501200800F810F820F830FDE
:101A3000840F890F8A0F8B0F8C0F8D0F920F930FCE
:101A4000940F950F960F173B37020A121A0049019F
:051A5000004101001837
:061A5600C4EC0CF01200CC
:020000040030CA
:0E000000FF02091EFF8181FF0FC00FE00F40BD
:00000001FF
